:020000040000FA
:1000000000000000000010280510851005110512E1
:1000100085190828000000000000000000002028CA
:10002000831285010730990000308B008316293038
:10003000850000309500803081008312051204286D
:100040004030FC2105160515C4010000051183167A
:100050000510851483120B30A1000130A20004307A
:10006000A3000F30A4000430A5000B30A60005301B
:10007000A7000730A8000F30A9000D30AA000630F5
:10008000AB000130AC000E30AD000930AE000830DE
:10009000AF000F30B1000030B2000A30B3000130C1
:1000A000B4000830B5000530B6000F30B70001309D
:1000B000B800B9000E30BA000130BB000030BC00FF
:1000C0000D30BD000E30BE000C30BF00BA30F8213C
:1000D00000000000B11905140000000005100130F7
:1000E000F821000000003118051400000000051080
:1000F0000130F82100000000B118051400000000D4
:1001000005100130F821000000003119051400002D
:10011000000005100130F8218316051485108312A4
:100120002430F8210130C3000130203E8400000853
:10013000A000A0102018A01420162011200885006F
:100140000508C200103085000522851904284418CE
:10015000C20C04160008C20604124218202800002F
:1001600000000C30F8210518022A8518022A840A9A
:100170000F300405031D97280130F821D620D62022
:10018000D6203708C4003718C928831605148510EF
:10019000CD288316051085140000831285190428C4
:1001A000C30137080F39031D9528942869210000E1
:1001B00000002F08A000013EA1072208C00021086E
:1001C000A207A20AA2092308C1000F30A305400814
:1001D0000F39A307A30A231A28294108A4072508D1
:1001E000C0002408A5072608C10040080F39083EB2
:1001F000C000401E2607A6004108013EA7072708A9
:10020000013EA8072808013EA9072908013EAA07C0
:100210002A08013EAB072B08013EAC072C08013E23
:10022000AD072D08013EAE072E08013EAF0720089E
:100230000F390F3EA0000000000000000000000089
:100240000000000000000000201E68290000DB28DC
:100250004108A3072408C0002308A4072508C100FB
:1002600040080F39083EC000401E2507A500410880
:10027000013EA6072608013EA7072708013EA8075A
:100280002808013EA9072908013EAA072A08013EBD
:10029000AB072B08013EAC072C08013EAD072D082B
:1002A000013EAE072E08013EAF0720080F390F3E72
:1002B000A00000000000000000000000000000009E
:1002C0000000000000000000201E68290000DB285C
:1002D00008003F08B000013EB1073208C0003108F5
:1002E000B207B20AB2093308C1000F30B3054008A3
:1002F0000F39B307B30A331AB8294108B4073508D0
:10030000C0003408B5073608C10040080F39083E60
:10031000C000401E3607B6004108013EB707370847
:10032000013EB8073808013EB9073908013EBA074F
:100330003A08013EBB073B08013EBC073C08013EB2
:10034000BD073D08013EBE073E08013EBF0730081D
:100350000F390F3EB0000000000000000000000058
:100360000000000000000000301E682900006B291A
:100370004108B3073408C0003308B4073508C1008A
:1003800040080F39083EC000401E3507B50041083F
:10039000013EB6073608013EB7073708013EB807E9
:1003A0003808013EB9073908013EBA073A08013E4C
:1003B000BB073B08013EBC073C08013EBD073D08AA
:1003C000013EBE073E08013EBF0730080F390F3E11
:1003D000B00000000000000000000000000000006D
:1003E0000000000000000000301E682900006B299A
:1003F000CF00CF0BF9290800CE000301F821CE0B66
:10040000FE29080085190428022A431C122A2230DA
:100410000406031D162A421C102A000009301B2A5C
:1004200006301B2A00000000000000000000000051
:0A043000000000001C2AB2000800C2
:02400E00D33F9E
:00000001FF
